:020000040800F2
:10000000E80800203D140008190700081B07000835
:100010001F0700082307000827070008000000004A
:100020000000000000000000000000002B07000896
:100030002D070008000000002F0700083107000806
:1000400057140008571400085714000857140008E4
:1000500057140008571400085714000857140008D4
:1000600057140008571400085714000857140008C4
:1000700057140008571400085714000857140008B4
:1000800057140008571400085714000857140008A4
:100090005714000857140008571400085714000894
:1000A0005714000857140008571400085714000884
:1000B00057140008571400081D3E00085714000884
:1000C0005714000857140008571400085714000864
:1000D00057140008F33C0008571400085714000890
:1000E0005714000857140008571400085714000844
:1000F0005714000857140008571400085714000834
:100100005714000857140008571400085714000823
:100110005714000857140008571400085714000813
:100120005714000857140008571400085714000803
:1001300000F002F800F03AF80AA090E8000C8244BF
:100140008344AAF10107DA4501D100F02FF8AFF29C
:10015000090EBAE80F0013F0010F18BFFB1A43F0A5
:1001600001031847D0460000F0460000103A24BFB3
:1001700078C878C1FAD8520724BF30C830C144BF0C
:1001800004680C607047000000230024002500264E
:10019000103A28BF78C1FBD8520728BF30C148BFEA
:1001A0000B6070471FB51FBD10B510BD03F02EFFCB
:1001B0001146FFF7F7FF00F0A7F803F04CFF03B478
:1001C000FFF7F2FF03BC03F013FF0000014606E057
:1001D00040F66B2200E0521E002AFCD1491E002985
:1001E000F6D1704710B5FC48808AFC490880084663
:1001F0000188022000F097FC10BD10B5F648008A77
:10020000F749088008460188012000F08CFC10BDE9
:1002100010B5F148808984B204F0010020B10421B6
:10022000F04801F038FA03E00421EE4801F035FA15
:1002300004F0020020B11021EB4801F02CFA03E099
:100240001021E94801F029FA04F0040020B101214D
:10025000E64801F020FA03E00121E44801F01DFA2C
:1002600004F0080028B14FF40061E04801F013FAEF
:1002700004E04FF40061DD4801F00FFA10BD10B545
:1002800000244FF48051D94801F0EBF910B144F04B
:10029000010401E024F001044FF40051D34801F0BF
:1002A000E0F910B144F0020401E024F002044FF43C
:1002B0008041CE4801F0D5F910B144F0040401E0CA
:1002C00024F004044FF40041C84801F0CAF910B109
:1002D00044F0080401E024F008044021C24801F081
:1002E000C0F910B144F0100401E024F010048021A2
:1002F000BD4801F0B6F910B144F0200401E024F04B
:100300002004BB490C7010BD08B5482001F03EF830
:1003100000F000FB00F05FFB00F07EFB00F0D0FB84
:1003200000F0A4FC00F03AFEFFF7A9FF00200090C7
:10033000AF4801784FF496530122002003F08AFA67
:1003400003F021FB0020AB4908604FF47A70FFF7FF
:100350003DFF0120A849C1F8BC014FF47A70FFF7B6
:1003600035FF0EE00020A34908604FF47A70FFF7D4
:100370002DFF0120A049C1F8BC014FF47A70FFF7AE
:1003800025FF00F0E6FF0028ECD1934908604860A3
:100390008860022100F0A5FF8F49C860022108464D
:1003A00000F09FFF8C4908610221042000F099FFB2
:1003B00089494861FFF72CFFFFF71FFFFFF712FF86
:1003C0001DE003F005FB8448C0688C490860824842
:1003D00000694860804840698860084602220168D8
:1003E000002000F069FF854802224168104600F0B5
:1003F00063FF824802228168042000F05DFFE0E78D
:1004000030B5034600200DB2002D19DB8D18082DE4
:1004100016DC7B4D2D884D1B2CB20EE0794D35F846
:1004200014502D1203F8015B764D15F8145003F8A3
:10043000015B651C2CB2551EAAB2002AEEDC00E05E
:10044000012030BD2DE9F04100F085FD6E4948885E
:1004500004F060F8804603F06FFF06466B4A6C4B71
:1004600003F06CFE044603F03BFE674948800846F3
:10047000408859498860BDE8F0812DE9F04100F0DD
:1004800053FD6149088804F045F8804603F054FFA5
:1004900006465E4A5E4B03F051FE044603F020FE22
:1004A00059490880084600884B494860BDE8F081FA
:1004B00010B5002408214B4801F0D3F810B124F006
:1004C000010401E044F001042021474801F0C9F88B
:1004D00010B124F0020401E044F002040221434878
:1004E00001F0BFF810B124F0040401E044F004046A
:1004F0004FF480613D4801F0B4F810B124F00804D5
:1005000001E044F008043448046010BD2DE9F047D0
:1005100005460F46164698464FF0000938B20028A7
:100520007BDBB819082878DC3A480088381A04B20E
:10053000B8F1000F03D0B8F1010F4CD129E025E04C
:100540000CB9FFF7B5FF012C01D1FFF796FF022C84
:1005500001D1FFF777FF032C01D1FFF759FE042CDF
:1005600001D1FFF74AFE052C01D1FFF73BFE1A48E7
:1005700030F82400000A05F8010B174810F8240091
:1005800005F8010B601C04B2701E86B2002ED7DC89
:1005900021E01DE015F8011B08020F4941F8240075
:1005A00015F8010B51F8241008430B4941F82400B9
:1005B000032C01D1FFF72CFE042C01D1FFF71DFE07
:1005C000052C01D1FFF70EFE601C04B2701E86B22E
:1005D000002EDFDC00BF22E0180100200A0000200E
:1005E000080000200008014000100140000C0140FC
:1005F00006000020BC0121420000214238010020F9
:1006000000000020080100202400002085EB51B8E4
:100610001E85134002000020FFE74FF00109484605
:10062000BDE8F0872DE9F04705460E46904699460D
:100630004FF0000A0FFA88F430B2002836DB06EBE0
:100640000800102832DC304607B2B9F1000F03D0A1
:10065000B9F1010F29D115E011E0082C01DD0820C6
:1006600000E02046C2B2B9B2294802F0E9FE05F81E
:10067000010BA4F1080004B207F1080007B2002C36
:10068000EBDC12E00EE015F8013B082C01DD082040
:1006900000E02046C2B2B9B21D4802F09DFEA4F1AE
:1006A000080004B2002CEEDC00BF01E04FF0010AAC
:1006B0005046BDE8F0872DE9F04705460C46164642
:1006C0004FF0000937B220B200281CDBA019102817
:1006D00019DC20461FFA80F812E0082F01DD0820FF
:1006E00000E03846C2B241460A4802F0A9FE05F8C9
:1006F000010BA7F1080007B208F108001FFA80F803
:10070000002FEADC01E04FF001094846BDE8F08720
:100710000400002006000020704700BFFEE700BF75
:10072000FEE700BFFEE700BFFEE770477047704777
:10073000704700000CB50020019000906C480068E4
:1007400040F480306A49086000BF6948006800F4DE
:10075000003000900198401C0190009818B9019851
:10076000B0F5A06FF1D16248006800F4003010B11C
:100770000120009001E0002000900098012843D162
:100780005C48006840F010005A490860084600685C
:1007900020F0030008600846006840F0020008608E
:1007A00053484068524948600846406848600846D7
:1007B000406840F4806048600846406820F47C103F
:1007C00048600846406840F4E81048600846006801
:1007D00040F08070086000BF4548006800F000707D
:1007E0000028F9D04248406820F0030040494860A2
:1007F0000846406840F00200486000BF3C4840683E
:1008000000F00C000828F9D10CBD10B5FFF792FFDD
:1008100010BD10B53648006840F00100344908604A
:100820000846406834490840314948600846006835
:10083000324908402E4908600846006820F48020AC
:1008400008600846406820F4FE0048604FF41F002E
:100850008860FFF7DAFF4FF000602949086010BD9B
:1008600010B5002100200022214B5B6803F00C0131
:1008700021B1042906D0082928D107E0214B224CB8
:10088000236027E01F4B204C236023E0184B5B685C
:1008900003F47010164B5B6803F48032022303EB01
:1008A000904022B9194B4343174C23600DE0104B85
:1008B0005B6803F4003323B1144B4343124C2360B1
:1008C00003E0104B4343104C236003E00D4B0E4CF0
:1008D000236000BF00BF064B5B68C3F303130C4CDF
:1008E000E15C094B1B68CB40074C236010BD000046
:1008F00000100240002002400000FFF8FFFFF6FE5B
:1009000008ED00E000127A000C00002000093D0014
:100910001000002008B501211C2001F0CBF80420B4
:10092000ADF8000010208DF8030003208DF80200C0
:1009300069465F4800F002FE04215D4800F0ADFE0C
:100940001020ADF800008DF8030003208DF80200A0
:100950006946584800F0F2FD1021564800F09DFE0F
:100960000120ADF8000010208DF8030003208DF861
:1009700002006946504800F0E1FD01214E4800F0B8
:100980008CFE4FF40060ADF8000010208DF80300DD
:1009900003208DF802006946474800F0CFFD4FF470
:1009A0000061454800F079FE0121084601F082F817
:1009B0000121424800F093FE4FF40040ADF80000E2
:1009C00010208DF8030003208DF802006946384896
:1009D00000F0B4FD08BD08B50121182001F06AF847
:1009E0004FF47040ADF8000003208DF8020048205D
:1009F0008DF803006946304800F0A0FDC020ADF836
:100A0000000003208DF8020048208DF8030069469D
:100A1000284800F093FD08BD08B501211C2001F015
:100A200049F80820ADF8000048208DF803000320A5
:100A30008DF8020069461E4800F080FD08211C4820
:100A400000F02BFE2020ADF8000048208DF80300B8
:100A500003208DF802006946164800F06FFD202142
:100A6000144800F01AFE0220ADF8000048208DF86E
:100A7000030003208DF8020069460F4800F05EFD78
:100A800002210D4800F009FE4FF48060ADF800002F
:100A900048208DF8030003208DF8020069460648BF
:100AA00000F04CFD4FF48061034800F0F6FD08BDF6
:100AB0000008014000100140000C0140000230001D
:100AC00008B50121142000F0F5FF0121042000F0F9
:100AD000F1FF10208DF8030003208DF802004FF481
:100AE0008050ADF8000069465B4800F027FD4FF4E8
:100AF0008051594800F0CFFD2020ADF80000694634
:100B0000554800F01BFD4FF48050ADF800006946D9
:100B1000524800F013FD4020ADF8000069464E48F1
:100B200000F00CFD08BD2DE9FF5F81460E46002553
:100B30000024A246304603F0EDFC4949019003F041
:100B400027FC834603F0F8FB464A474BCDE90201F8
:100B500003F0F4FA074603F0C3FA86B200BFB9F116
:100B6000010F3AD120213C4800F097FD4FF480510D
:100B70003A4800F092FD102528E0681E01218140CE
:100B80001FFA81FA06EA0A0028B14FF48051324870
:100B900000F081FD04E04FF480512F4800F07DFD0E
:100BA000142401E0601EC4B2002CFBDC20212A4882
:100BB00000F071FD142401E0601EC4B2002CFBDCC7
:100BC0002021254800F069FD681EC5B2002DD4DC47
:100BD0004FF48051214800F05EFDB9F1020F38D189
:100BE00020211D4800F059FD40211B4800F055FD13
:100BF000102528E0681E012181401FFA81FA06EACB
:100C00000A0028B14FF48051134800F044FD04E07D
:100C10004FF48051104800F040FD142401E0601EA4
:100C2000C4B2002CFBDC20210B4800F034FD14245E
:100C300001E0601EC4B2002CFBDC2021064800F05D
:100C40002CFD681EC5B2002DD4DC4021024800F006
:100C500022FDBDE8FF9F0000000801400010014098
:100C600000007A439A9999999979644038B500249B
:100C70000121342000F01EFF4FF48060ADF8000029
:100C800010208DF8030003208DF802006946BD484E
:100C900000F054FC0420ADF8000010208DF8030093
:100CA00003208DF802006946B74800F047FC042194
:100CB000B54800F0F2FC4FF40070ADF800000420DD
:100CC0008DF8030003208DF802006946AD4800F05E
:100CD00035FC4FF40070ADF8000010208DF80300D3
:100CE00003208DF802006946A64800F027FC4FF467
:100CF0008070ADF8000010208DF8030003208DF8FF
:100D0000020069469F4800F019FC4FF480719D482D
:100D100000F0C3FC8020ADF8000004208DF8030033
:100D200003208DF802006946984800F007FC4FF454
:100D30008071944800F0AFFC042401E0601EC4B24E
:100D4000002CFBDC4FF480718E4800F0A6FC0324DD
:100D500001E0601EC4B2002CFBDC4FF480718948B6
:100D600000F099FC0421884800F095FC042401E07F
:100D7000601EC4B2002CFBDC0421834800F08DFC13
:100D8000032401E0601EC4B2002CFBDC04217E4879
:100D900000F081FC38BD70B5002500260024282411
:100DA00001E0601EC4B2002CFBDC282401E0601EC0
:100DB000C4B2002CFBDC4FF48061724800F06DFC83
:100DC0000421714800F067FC052401E0601EC4B2F4
:100DD000002CFBDC04216C4800F05FFC062401E0E1
:100DE000601EC4B2002CFBDC0421674800F053FCF9
:100DF000642401E0601EC4B2002CFBDC0A2621E062
:100E00004FF480615F4800F046FC142401E0601E4E
:100E1000C4B2002CFBDC4FF6FF7000EA45054FF42E
:100E20000061584800F01DFC05434FF480615548AF
:100E300000F033FC142401E0601EC4B2002CFBDC83
:100E4000701EC6B2002EDBDC04214F4800F023FCEC
:100E5000B5F5806F00DD0025284670BD70B5002512
:100E600000260024282401E0601EC4B2002CFBDC14
:100E7000282401E0601EC4B2002CFBDC4FF400719A
:100E8000404800F00AFC4FF480713E4800F003FC3B
:100E9000052401E0601EC4B2002CFBDC4FF480711D
:100EA000384800F0FAFB062401E0601EC4B2002CB2
:100EB000FBDC4FF48071334800F0EDFB642401E06B
:100EC000601EC4B2002CFBDC0A2620E04FF4007147
:100ED0002C4800F0E0FB142401E0601EC4B2002C9A
:100EE000FBDC4FF6FF7000EA45058021274800F043
:100EF000B8FB05434FF40071224800F0CEFB1424E8
:100F000001E0601EC4B2002CFBDC701EC6B2002ED5
:100F1000DCDC4FF480711B4800F0BDFBB5F5806F41
:100F200000DD0025284670BD70B500250020184959
:100F3000088000240AE0FFF72EFF164921F814006C
:100F4000084630F814000544601CC4B2012CF2DBE2
:100F50000F490D8070BD70B5002500200C494880F8
:100F600000240AE0FFF77AFF0B4921F81400084635
:100F700030F814000544601CC4B2012CF2DB0449B3
:100F80004D8070BD00100140001401400008014078
:100F900024000020200000202200002008B50121AC
:100FA000082000F087FDC020ADF8000010208DF86B
:100FB000030003208DF802006946F14800F0BEFAF4
:100FC000C021EF4800F067FB2020ADF800001020A2
:100FD0008DF8030003208DF802006946E84800F010
:100FE000ADFA2021E64800F058FB08BD10B5E448F2
:100FF000006820F07040E24908600846006840F050
:10100000405008600120DF490860DF49C1F89C01B9
:10101000042000F0F3F90020DA49091D08600420DB
:1010200000F0ECF90020D849C1F8980110BD10B5C6
:10103000D348006820F07040D14908600846006835
:1010400040F0405008600020CE490860CE49C1F809
:101050009C01042000F0D2F90120CA490860CA4965
:10106000C1F89C01042000F0C9F910BD10B500249E
:10107000C348006820F07040C14908600846006815
:1010800040F0004008600120BE49091D086000F0E2
:10109000B5F90120BC49C1F8980100F0AFF907E0AB
:1010A000601CC4B2FA2C03DDFFF7C1FF012010BDA4
:1010B000B4487C3800680028F2D1B249086000BF0B
:1010C000F5E710B50020AF490860AD48006820F092
:1010D0007040AB4908600846006840F04050086026
:1010E0000020A949C1F89C01022000F087F90120E5
:1010F000A4490860022000F081F90020A249C1F84B
:10110000980110BD10B500209E4908609C480068F9
:1011100020F070409A4908600846006840F040504E
:10112000086001209849C1F89C01022000F066F98E
:10113000012094490860022000F060F900209249E3
:10114000C1F8980110BD70B504468D48006820F0C4
:1011500070408B4908600846006840F040500860C5
:1011600000208849086000251EE0E00920B1012028
:101170008449091D086003E000208249091D0860B8
:101180006006040E022000F039F901207D49086054
:10119000022000F033F900207B49C1F898010220B9
:1011A00000F02CF9681CC5B2082DDEDB70BD70B5EF
:1011B000054600247248006820F0704070490860BD
:1011C0000846006840F000400860002618E0002053
:1011D0006C490860022000F011F901206A49C1F849
:1011E000980100F00BF96006040E66487C38006830
:1011F00008B1601CC4B2012000F000F9701CC6B236
:10120000082EE4DB15B9FFF77DFF01E0FFF759FF7A
:10121000204670BD70B504460026FFF7E7FEA0200B
:10122000FFF791FFFFF722FF2012FFF78CFFFFF778
:101230001DFF2546E11704EB11610912A4EB012102
:10124000C8B2FFF780FFFFF711FFFFF7CFFEA12025
:10125000FFF779FFFFF70AFF0020FFF7A8FF064618
:10126000FFF704FFFFF7E3FE304670BD70B504469C
:101270000E46FFF7BBFEA020FFF765FFFFF7F6FE67
:101280002012FFF760FFFFF7F1FE2546E11704EBA0
:1012900011610912A4EB0121C8B2FFF754FFFFF757
:1012A000E5FE3046FFF74FFFFFF7E0FEFFF7BFFE1A
:1012B0000A2000F087F870BD2DE9F04105460E4682
:1012C0001746002409E0E20026FA02F2D1B22A19F8
:1012D00090B2FFF7CBFF601CC4B2BC42F3DBBDE8A9
:1012E000F0812DE9F04107460C460026002509E073
:1012F00036023919491B491E88B2FFF78BFF064495
:10130000681CC5B2A542F3DB3046BDE8F08170B57C
:1013100006460C46154607E03046721C96B2FFF7AB
:1013200079FF01C4681E85B2002DF5D170BD70B57E
:1013300005460C46164606E021782846FFF796FF3C
:10134000681C85B2241D301EA6F101018EB2F3D1B6
:1013500070BD10B56420FFF75DFF0446552C01D128
:10136000002010BD55216420FFF780FF6420FFF7A7
:1013700051FF0446552C01D10020F2E70120F0E78F
:10138000000C014098812142008021424FF0E02171
:10139000096921F004014FF0E0221161C21700EB4E
:1013A0005272C2F3C702234B1A701946097801EB37
:1013B0004102C2EBC1114FF6FF7202EAC1011E4A9F
:1013C0001180704701461C4A12884A434FF0E023BF
:1013D0005A6100229A6101221A6100BF4FF0E02297
:1013E000106900F001021AB100F48032002AF5D031
:1013F00000224FF0E0231A619A61704701460D4ABE
:1014000012784A434FF0E0235A6100229A61012288
:101410001A6100BF4FF0E022106900F001021AB11A
:1014200000F48032002AF5D000224FF0E0231A6148
:101430009A617047280000202A0000200948804750
:1014400009480047FEE7FEE7FEE7FEE7FEE7FEE7A6
:10145000FEE7FEE7FEE7FEE704480549054A064BBE
:10146000704700001308000831010008E80200205E
:10147000E8080020E8040020E804002010B5044635
:10148000CC48844208D10121042000F02DFB00212A
:10149000042000F029FB46E0C748844208D101211E
:1014A000082000F021FB0021082000F01DFB3AE09D
:1014B000C248844208D10121102000F015FB002110
:1014C000102000F011FB2EE0BD48844208D101211C
:1014D000202000F009FB0021202000F005FB22E085
:1014E000B848844208D10121402000F0FDFA0021D3
:1014F000402000F0F9FA16E0B348844208D10121F7
:10150000802000F0F1FA0021802000F0EDFA0AE0DE
:10151000AE48844207D10121801500F0E5FA002190
:10152000A01500F0E1FA10BD10B50121084600F049
:10153000DBFA0021012000F0D7FA10BD2DE9F041BF
:10154000024600250026002000230024002791F8F1
:1015500003C00CF00F0591F803C00CF0100CBCF1A7
:10156000000F03D091F802C04CEA050591F800C0C5
:10157000BCF1000F31D0146800202BE04FF0010CBB
:101580000CFA00F3B1F800C00CEA03069E4220D129
:1015900083004FF00F0C0CFA03F7BC4305FA03FC71
:1015A0004CEA040491F803C0BCF1280F06D14FF0B7
:1015B000010C0CFA00FCC2F814C00AE091F803C058
:1015C000BCF1480F05D14FF0010C0CFA00FCC2F839
:1015D00010C0401C0828D1D31460B1F800C0BCF181
:1015E000FF0F34DD546800202EE000F1080C4FF0AE
:1015F000010808FA0CF3B1F800C00CEA03069E4299
:1016000021D183004FF00F0C0CFA03F7BC4305FA0D
:1016100003FC4CEA040491F803C0BCF1280F05D187
:1016200000F1080C08FA0CF8C2F8148091F803C015
:10163000BCF1480F07D100F1080C4FF0010808FA7F
:101640000CF8C2F81080401C0828CED35460BDE8C6
:10165000F0814FF6FF710180022181700421C17079
:1016600070470246002093680B400BB1012000E058
:10167000002070470146886880B27047024600200B
:10168000D3680B400BB1012000E0002070470146F9
:10169000C86880B2704701617047416170470AB104
:1016A000016100E041617047C16070474FF48032D2
:1016B0000A43826181618261826982697047024660
:1016C0000020434B18684FF68073184040EA021020
:1016D00008433F4B186070473E49C8617047F0B5FA
:1016E0000A46002300240021002500F00046B6F140
:1016F000004F02D1364EF16901E0354E7168C0F3FA
:10170000034583B200F44016B6F5401F08D121F01E
:1017100070612F4E766826F070662D4F7E6012E065
:1017200000F48016B6F5801F06D1032606FA05F4EC
:10173000A14341F0706106E0460D360103FA06F65A
:10174000B14341F0706122B1460D360103FA06F64D
:10175000314300F00046B6F1004F02D11C4EF1615A
:1017600001E01B4E7160F0BD30B500228B071C0FED
:101770000F2303FA04F2164B08338C1053F824306D
:101780009343134C08348D1044F8253023468C10B5
:1017900053F824308C07240F00FA04F423430C4C34
:1017A00008348D1044F8253030BD0A49DC3108601A
:1017B0007047000000080140000C0140001001408B
:1017C0000014014000180140001C014000200140AD
:1017D0000000014000002042DF48006840F00100A6
:1017E000DD49086008464068DC490840DA4948603D
:1017F00008460068DA490840D7490860084600688A
:1018000020F4802008600846406820F4FE0048600C
:101810004FF41F0088607047CF49096821F4803178
:10182000CD4A11601146096821F480211160B0F59C
:10183000803F03D0B0F5802F0ED106E0C64909687D
:1018400041F48031C44A116007E0C349096841F49A
:10185000A021C14A116000E000BF00BF704710B571
:1018600001460022002300204A11012A02D1BA4C6D
:10187000236806E0022A02D1B74C236A01E0B64C85
:10188000636A01F01F02012494401C400CB1012046
:1018900000E0002010BD38B5002000900024002595
:1018A00000BF3120FFF7DBFF05460098401C009089
:1018B0000098B0F5A06F01D0002DF2D03120FFF7D5
:1018C000CEFF08B1012400E00024204638BD0146C7
:1018D0000020A14A106820F0F80040EAC100106022
:1018E0007047A04908607047024600209A4B58682C
:1018F00020F47C1042EA01031843974B586070476C
:1019000098490866704701460020934A506820F0C5
:1019100003000843506070478F48406800F00C0097
:101920007047014600208C4A506820F0F0000843C0
:101930005060704701460020874A506820F4E060FC
:1019400008435060704701460020834A506820F4E5
:10195000605040EAC1005060704729B17E4A527A17
:1019600002437D4B5A7204E07B4A527A82437A4B9F
:101970005A7270477B49D831086070470146002091
:10198000754A506820F44040084350607047002179
:10199000714A20321170704A82F82010012802D05A
:1019A00004280AD104E001216B4A2032117005E0BD
:1019B0000521694A2032117000E000BF00BF704766
:1019C0006949086070476449096A0143624A1162C3
:1019D0007047654944390860704730B500210022DE
:1019E000002400235C4D6D6805F00C0121B1042931
:1019F00005D0082923D105E05C4D056022E05B4D50
:101A000005601FE0544D6D6805F47012524D6D680D
:101A100005F48034022505EB92421CB9544D554320
:101A200005600BE04C4D6D6805F400351DB1504D5F
:101A30005543056002E04D4D5543056002E04B4DB6
:101A4000056000BF00BF444D6D6805F0F001090955
:101A5000484D6B5C0568DD4045603F4D6D6805F4A1
:101A6000E061090A434D6B5C4568DD4085603A4D95
:101A70006D6805F46051C90A3E4D6B5C4568DD40F8
:101A8000C560354D6D6805F44041890B3A4D6B5C7E
:101A9000C568B5FBF3F5056130BD29B12E4A526921
:101AA00002432D4B5A6104E02B4A526982432A4B70
:101AB0005A61704729B1284A92690243264B9A61BC
:101AC00004E0254A92698243234B9A61704729B109
:101AD000214AD2690243204BDA6104E01E4AD269EE
:101AE00082431D4BDA61704729B11B4AD268024319
:101AF000194BDA6004E0184AD2688243164BDA6068
:101B0000704729B1144A12690243134B1A6104E069
:101B1000114A12698243104B1A61704712494039C9
:101B2000086070470F49C86470470B49C871704717
:101B30000948406A40F08070074948627047014692
:101B40000020054A92680A400AB1012000E0002006
:101B50007047014988727047001002400000FFF88A
:101B6000FFFFF6FE000042428004424200127A006B
:101B700000093D002C0000203C00002010B5044668
:101B8000FB48844209D101218803FFF7ADFF002102
:101B90004FF48040FFF7A8FF32E0F648844209D1B5
:101BA00001214804FFF7ADFF00214FF40030FFF79B
:101BB000A8FF25E0F048844209D101218804FFF7FD
:101BC000A0FF00214FF48020FFF79BFF18E0EB48B7
:101BD000844209D10121C804FFF793FF00214FF48B
:101BE0000020FFF78EFF0BE0E548844208D1012179
:101BF0000805FFF786FF00214FF48010FFF781FFF3
:101C000010BD2DE9F04786B005460E460024A246D9
:101C100000BFA1460027B08900B100BF2F462C8A23
:101C20004CF6FF700440F08804432C82AC894EF6D9
:101C3000F3100440B0883189084371890843044394
:101C4000AC81AC8A4FF6FF400440B0890443AC82BB
:101C500001A8FFF7C2FEC648874202D1DDF810A0F6
:101C600001E0DDF80CA0A88900F4004040B10AEBC7
:101C7000CA0000EB0A1031684900B0FBF1F807E038
:101C80000AEBCA0000EB0A1031688900B0FBF1F8DA
:101C90006420B8FBF0F004012009642101FB1089E5
:101CA000A88900F4004040B1322000EBC900B0FB2D
:101CB000F1F000F00700044308E0322000EB0910C7
:101CC0006421B0FBF1F000F00F0004432C8106B05A
:101CD000BDE8F0874FF41651016000218180C1807A
:101CE00001810C21418100218181704710B502469C
:101CF0000020108A4FF2FF0318400B884C882343C2
:101D00008C882343CC8823431843108210BD0021C4
:101D1000018041808180C180704721B1828942F475
:101D20000052828104E082894DF6FF731A4082815D
:101D30007047F0B50346002400260025002040F639
:101D40006A17B94200D100BF1846C1F3421401F02E
:101D50001F06012707FA06F5012C01D10C3004E01B
:101D6000022C01D1103000E014301AB107682F4363
:101D7000076002E00768AF430760F0BD1AB1838ACD
:101D80000B43838202E0838A8B4383827047028AFB
:101D90004FF6F0731A400282028A0A4302827047A9
:101DA00082894FF2FF731A40828182890A438281BD
:101DB000704721B1828942F00202828104E0828967
:101DC0004FF6FD731A4082817047028A4FF6DF7327
:101DD0001A400282028A0A430282704721B1028AB3
:101DE00042F48042028204E0028A4BF6FF731A40FA
:101DF00002827047C1F308028280704701468888DA
:101E0000C0F308007047818941F00101818170476A
:101E1000028BD2B20283028B42EA01220283704714
:101E2000028B02F47F420283028B0A4302837047D3
:101E300021B1828A42F02002828204E0828A4FF637
:101E4000DF731A408282704721B1828A42F0100209
:101E5000828204E0828A4FF6EF731A4082827047D2
:101E600021B1828A42F00802828204E0828A4FF61F
:101E7000F7731A408282704721B1828942F400428E
:101E8000828103E08289C2F30E028281704721B110
:101E9000828A42F40062828204E0828A4FF2FF73F7
:101EA0001A4082827047828A4FF6FB731A40828200
:101EB000828A0A438282704721B1828A42F00202FA
:101EC000828204E0828A4FF6FD731A408282704754
:101ED00002460020B1F5007F00D100BF13880B40FF
:101EE0000BB1012000E00020704701F40072B2F550
:101EF000007F00D100BFCA430280704770B5024620
:101F0000002400230025002040F66A16B14200D1CB
:101F100000BFC1F3421501F01F03012606FA03F3C7
:101F2000012D02D19689334006E0022D02D1168A96
:101F3000334001E0968A33400C12012606FA04F47D
:101F40001688344013B10CB1012000E0002070BDB0
:101F500010B50022002340F66A14A14200D100BF50
:101F60000A1201249440A3B2DC43048010BD000097
:101F7000003801400044004000480040004C004050
:101F80000050004031490143314A1160704770B53B
:101F9000002100230F22C47804B32D4C246804F4DC
:101FA000E064C4F5E064210AC1F10403CA40447846
:101FB00004FA03F18478144021430901254C067882
:101FC000A155047804F01F050124AC4005786D117B
:101FD000AD0005F1E025C5F8004109E0047804F002
:101FE0001F050124AC401C4D0678761145F82640AB
:101FF00070BD1A4A0A400243154B1B1F1A607047F6
:1020000039B1134A121D12680243114B1B1D1A608D
:1020100006E00F4A121D126882430D4B1B1D1A6009
:102020007047042808D14FF0E021096941F004010C
:102030004FF0E022116107E04FF0E021096921F043
:1020400004014FF0E0221161704700000000FA0522
:102050000CED00E000E400E080E100E080FFFF1F05
:1020600010B50446FE48844208D10121C014FFF790
:102070003BFD0021E014FFF737FDC4E0B4F1804FD1
:1020800008D101210846FFF73CFD00210120FFF7A0
:1020900038FDB8E0F348844208D101210220FFF75F
:1020A00030FD00210220FFF72CFDACE0EE48844219
:1020B00008D101210420FFF724FD00210420FFF7AF
:1020C00020FDA0E0E948844208D101210820FFF763
:1020D00018FD00210820FFF714FD94E0E448844235
:1020E00008D101211020FFF70CFD00211020FFF77F
:1020F00008FD88E0DF48844208D101212020FFF755
:1021000000FD00212020FFF7FCFC7CE0DA4884423F
:1021100008D101214014FFF7E7FC00216014FFF70C
:10212000E3FC70E0D548844209D10121C804FFF7DF
:10213000DBFC00214FF40020FFF7D6FC63E0D04821
:10214000844209D101210805FFF7CEFC00214FF49C
:102150008010FFF7C9FC56E0CA48844209D101212A
:102160004805FFF7C1FC00214FF40010FFF7BCFC4D
:1021700049E0C548844208D101214020FFF7C1FC55
:1021800000214020FFF7BDFC3DE0C048844208D15B
:1021900001218020FFF7B5FC00218020FFF7B1FC72
:1021A00031E0BB48844208D101218015FFF7A9FC2A
:1021B0000021A015FFF7A5FC25E0B648844209D10F
:1021C00001210804FFF790FC00214FF48030FFF755
:1021D0008BFC18E0B048844209D101214804FFF784
:1021E00083FC00214FF40030FFF77EFC0BE0AB488E
:1021F000844208D101218804FFF776FC00214FF4C6
:102200008020FFF771FC10BD00220288944B984299
:102210000ED0994B98420BD0B0F1804F08D0914B23
:10222000984205D0904B984202D0904B984204D1EE
:102230004FF68F731A404B881A438D4B984207D044
:102240008C4B984204D04FF6FF431A40CB881A4378
:1022500002808B8883850B880385814B98420BD045
:10226000854B984208D08B4B984205D08A4B9842B8
:1022700002D08A4B984201D10B7A038601238382D4
:10228000704770B5002400220023058C4FF6FE76BF
:1022900035400584028C8388048B4FF68F752C4063
:1022A000B51E2C400D882C43751E2A400D892A43EB
:1022B0004D882A436A4DA8420BD06F4DA84208D0E2
:1022C000744DA84205D0744DA84202D0734DA84267
:1022D00013D14FF6F7752A404D892A434FF6FB7507
:1022E0002A408D882A434FF6FF652B404FF6FF5555
:1022F0002B408D892B43CD892B4383800483CD884C
:102300008586028470BD70B5002400220023058CF0
:102310004FF6EF7635400584028C8388048B48F6AF
:10232000FF752C404FF6FF452C400D884FF6FF7689
:1023300006EA05252C434FF6DF752A400D8906EA8B
:1023400005152A434D8806EA05152A43444DA8423F
:1023500002D0494DA8421DD14FF67F752A404D89C4
:102360004FF6FF7606EA05152A434FF6BF752A4059
:102370008D8806EA05152A434FF6FF352B404FF2AC
:10238000FF752B408D8906EA85052B43CD8906EA2A
:1023900085052B4383800483CD880587028470BD27
:1023A00070B5002400220023058C4FF6FF663540EF
:1023B0000584028C8388848B4FF68F752C404FF6F2
:1023C000FC752C400D882C434FF6FF552A400D8993
:1023D0004FF6FF7606EA05252A434D8806EA0525CD
:1023E0002A431F4DA84202D0234DA8421DD14FF2CF
:1023F000FF752A404D894FF6FF7606EA05252A43E8
:102400004FF6FF352A408D8806EA05252A434EF609
:10241000FF752B404DF6FF752B408D8906EA05159B
:102420002B43CD8906EA05152B4383808483CD8811
:102430008587028470BD70B5002200230024058CBE
:102440004EF6FF7635400584038C8488828B48F6EF
:10245000FF752A404FF6FF452A400D8820E0000016
:10246000002C01400004004000080040000C004027
:10247000001000400014004000340140004C0140B6
:10248000005001400054014000180040001C004072
:10249000002000400040014000440140004801404D
:1024A0004FF6FF7606EA05252A434DF6FF752B40C9
:1024B0000D8906EA05352B434D8806EA05352B4381
:1024C000FA4DA84202D0FA4DA84208D14BF6FF754A
:1024D0002C408D894FF6FF7606EA85152C438480C3
:1024E0008283CD88A0F84050038470BD828B4FF268
:1024F000FF331A408283828B4FF6FF7303EA012376
:102500001A4382837047F0B50C461546002200211D
:102510000026078C4EF6FF7C07EA0C070784828BA7
:10252000018C4FF6FF7707EA043640F6FF473A4042
:102530004FF6FF7707EA05273A434FF6FF7707EA9A
:1025400003373A43D94FB8420ED0D94FB8420BD0D7
:10255000B0F1804F08D0D74FB84205D0D64FB8421F
:1025600002D0D64FB84206D14DF6FF77394046F437
:102570008057394305E047F6FF57394044F4805708
:10258000394382830184F0BD828B4FF6F3731A4086
:102590008283828B0A4382837047F0B50C461546CE
:1025A000002200210026078C4FF6FF6C07EA0C077B
:1025B0000784828B018C4FF6FF7707EA04264FF6DB
:1025C0000C773A404FF6FF7707EA03172F433A4359
:1025D000B64FB8420ED0B64FB8420BD0B0F1804FD4
:1025E00008D0B44FB84205D0B34FB84202D0B34F71
:1025F000B84206D14FF6FF57394046F48077394349
:1026000005E04FF2FF57394044F480773943828325
:102610000184F0BD028B4FF2FF331A400283028B1C
:102620004FF6FF7303EA01231A4302837047F0B5A4
:102630000C461546002200210026078C4FF6EF7C41
:1026400007EA0C070784028B018C4FF6FF7707EA35
:10265000041640F6FF473A404FF6FF7707EA033784
:102660003A434FF6FF7707EA05273A438F4FB842C0
:102670000ED08F4FB8420BD0B0F1804F08D08D4FA5
:10268000B84205D08C4FB84202D08C4FB84206D128
:102690004FF6DF77394046F01007394305E04FF633
:1026A0005F77394044F01007394302830184F0BD5D
:1026B000028B4FF6F3731A400283028B0A430283A4
:1026C0007047F0B50C46154600220021068C4FF6E7
:1026D000FE773E400684028B018C4FF60C7632402A
:1026E0007E1C06EA03162E433243704EB0420ED0D3
:1026F0006F4EB0420BD0B0F1804F08D06D4EB0425B
:1027000005D06D4EB04202D06C4EB04206D14FF6AD
:10271000FD76314044F00106314305E04FF6F57691
:10272000314044F00106314302830184F0BD70B5AD
:1027300005460C465D4885420ED05D4885420BD06B
:10274000B5F1804F08D05B48854205D05A48854294
:1027500002D05A48854200D100E000BF208850B91D
:102760002389A28861882846FFF7ABFFE1882846C5
:10277000FFF79EFF25E0208804280AD12389A2883C
:1027800061882846FFF753FFE1882846FFF742FF9C
:1027900017E0208808280AD12389A2886188284662
:1027A000FFF7FBFEE1882846FFF7EEFE09E02389EC
:1027B000A28861882846FFF7A6FEE1882846FFF731
:1027C00095FE70BD2DE9F04105460C460026012717
:1027D000608808B9022600E00026A088012801D1FF
:1027E000022700E001272088A0B92389A2886188F8
:1027F0002846FFF766FFE1882846FFF759FF23893F
:102800003A4631462846FFF712FFE1882846FFF78F
:1028100001FF13E02389A28861882846FFF707FF9C
:10282000E1882846FFF7F6FE23893A4631462846D6
:10283000FFF747FFE1882846FFF73AFFBDE8F08140
:102840000A884B881A438B881A43CB881A430B8912
:102850001A434B891A438B891A43A0F844207047C6
:102860004FF6FF71818000210180C180418001729B
:1028700070470021018041808180C18001814181B8
:102880008181C181704700210180418001218180C7
:102890000021C18001817047002101804180818039
:1028A000C18001814181818170470000002C01407D
:1028B000003401400004004000080040000C0040CB
:1028C00021B1028842F00102028004E002884FF642
:1028D000FE731A400280704731B1B0F8442042F4D0
:1028E0000042A0F8442005E0B0F84420C2F30E02F4
:1028F000A0F8442070471AB183890B43838102E01A
:1029000083898B43838170478182704741EA020348
:10291000A0F8483070471AB183890B43838102E0E5
:1029200083898B438381704701894FF6F872114088
:10293000018170470A46002101894FF68F731940C3
:1029400011430181704730B504460D4629462046A3
:10295000FFF7F0FF208940F00700208130BD2DE90E
:10296000F04104460D4616461F46602D06D13B46F3
:10297000012231462046FFF75AFE05E03B46012280
:1029800031462046FFF79DFE29462046FFF7D2FF3D
:10299000208940F007002081BDE8F08130B50C4669
:1029A00000210189C9B24FF6FF7505EA03251543D9
:1029B00025432943018130BD2DE9F04105460E46EE
:1029C00017469846002443463A4631462846FFF7C4
:1029D000E5FF2C894FF6F870044044F007044FF6E9
:1029E0008F70044044F070042C81BDE8F081F0B594
:1029F00004460D4616461F463B46324629462046AB
:102A0000FFF7CCFF208940F480402081F0BD018594
:102A1000828270470A46002101884FF68F73194061
:102A2000114301807047F0B50C4615461E46002143
:102A3000002200230189028B038C4FF6F87739407E
:102A400021434FF6FC473A4040F201173A434FF614
:102A5000DD773B404FF6FF7707EA06172F433B43EE
:102A6000018102830384F0BD0A460021018B4FF6E9
:102A70008F7319401143018370470A460021018B6F
:102A800048F6FF7319404FF6FF7303EA0223194318
:102A9000018370470A460021818B4FF68F731940DE
:102AA0001143818370470A460021818B48F6FF73EA
:102AB00019404FF6FF7303EA0223194381837047DD
:102AC00021B1028842F08002028004E002884FF6C1
:102AD0007F731A400280704721B1828842F004025D
:102AE000828004E082884FF6FB731A408280704730
:102AF00021B1828842F00802828004E082884FF689
:102B0000F7731A408280704721B1828842F0010237
:102B1000828004E082884FF6FE731A4082807047FC
:102B20000A460021018B4FF6F773194011430183C8
:102B300070470A460021018B4FF2FF7319404FF690
:102B4000FF7303EA02231943018370470A460021F9
:102B5000818B4FF6F77319401143818370470A4602
:102B60000021818B4FF2FF7319404FF6FF7303EA88
:102B700002231943818370470A460021018B4FF6D7
:102B8000FB7319401143018370470A460021018BF2
:102B90004FF6FF3319404FF6FF7303EA0223194340
:102BA000018370470A460021818B4FF6FB73194061
:102BB0001143818370470A460021818B4FF6FF3312
:102BC00019404FF6FF7303EA0223194381837047CC
:102BD0000A460021018B4FF67F7319401143018390
:102BE00070470A460021018BC1F30E014FF6FF73B7
:102BF00003EA02231943018370470A460021818BAF
:102C00004FF67F7319401143818370470A460021B4
:102C1000818BC1F30E014FF6FF7303EA02231943C0
:102C2000818370470A460021018C4FF6FD731940DD
:102C30001143018470470A460021018C4FF6F77357
:102C400019401143018470470A460021018C4FF658
:102C5000DF7319404FF6FF7303EA0213194301842F
:102C600070470A460021018C4FF67F7319404FF6DA
:102C7000FF7303EA02131943018470470A460021D7
:102C8000018C4FF6FF5319404FF6FF7303EA0223FE
:102C90001943018470470A460021018C4FF2FF73EB
:102CA00019404FF6FF7303EA02231943018470476A
:102CB0000A460021018C4DF6FF7319404FF6FF7351
:102CC00003EA023319430184704730B5002301241D
:102CD0008C40A3B2048C9C430484048C02FA01F55A
:102CE000ADB22C43048430BD30B5002304248C40A5
:102CF000A3B2048C9C430484048C02FA01F5ADB2A7
:102D00002C43048430BD70B50346002000241846CF
:102D1000183001258D40ACB21D8CA5431D8409B12E
:102D2000082909D100EB6100056825F070050560F0
:102D30000568154305600EE00D1FC5F34E052844D8
:102D4000056825F4E045056005684FF6FF7606EA5C
:102D500002263543056070BD21B1028842F00202AF
:102D6000028004E002884FF6FD731A40028070472B
:102D700021B1028842F00402028004E002884FF68A
:102D8000FB731A400280704721B1828842F08002B2
:102D9000828004E082884FF67F731A4082807047F9
:102DA00002884FF6F7731A40028002880A430280B5
:102DB000704782884FF68F731A40828082880A4358
:102DC0008280704702894FF6F8731A4002810289A7
:102DD0000A430281704702894FF67F731A400281CD
:102DE00002890A4302817047818470478185704758
:102DF000818670470187704781877047A0F840102F
:102E0000704702884FF6FF431A40028002880A4347
:102E1000028070470146888E70470146088F7047D0
:102E20000146888F70470146B1F84000704701465F
:102E3000888C70470146088D704702460020138A2F
:102E40000B400BB1012000E000207047CA43028212
:102E5000704730B50246002000230024158A05EA99
:102E60000103958905EA010413B10CB1012000E0CA
:102E7000002030BDCA43028270472DE9F05F06464C
:102E80000D464FF0000B2888052844D170784FEA92
:102E9000002AB07840EA0A0AF07804023079044344
:102EA000012C35DBB4F5FA6F32DA37460020288082
:102EB000012007F8010B2888401C288004F0070037
:102EC00040B12046E11704EB5171C910491C01F0D3
:102ED000FF0805E02046E11704EB5171C1F3C70874
:102EE00007F8018B2888401C288000232246514681
:102EF0003846FDF797FB8146B9F1000F04D04846EC
:102F000000F0B3FA834608E028884044288004E0B3
:102F10004FF0030B01E04FF0030B5846BDE8F09F64
:102F20002DE9F84304460E464FF000083088052886
:102F300027D160780702A07807432079F0B9E078BC
:102F4000FF2801D0E078C8B900208DF80100E078B2
:102F5000FF2803D101208DF8000002E000208DF849
:102F6000000001231A4639466846FDF75BFB05461B
:102F70004DB1284600F079FA804604E04FF003088E
:102F800001E04FF003084046BDE8F8832DE9F05F0B
:102F900005460E464FF0000B3088052838DD68786E
:102FA0004FEA0029A87840EA0909E878040228795C
:102FB000044395F805A004F0070038B12046E11756
:102FC00004EB5171C910491CCFB205E02046E1174E
:102FD00004EB5171C1F3C707012C16DBB4F5F66F92
:102FE00013DC574511D1012322464946A81DFDF7A0
:102FF00019FB8046B8F1000F04D0404600F035FAC6
:10300000834607E00520308004E04FF0030B01E029
:103010004FF0030B5846BDE8F09F2DE9F05F0646E0
:103020000D464FF0000B2888052843D170784FEAF1
:10303000002AB07840EA0A0AF078040230790443A2
:10304000012C34DBB4F5FA6F31DA374600202880E2
:10305000022007F8010B2888401C288004F0070094
:1030600040B12046E11704EB5171C910491C01F031
:10307000FF0805E02046E11704EB5171C1F3C708D2
:1030800007F8018B2888401C288022465146384684
:10309000FDF711FB8146B9F1000F04D0484600F05E
:1030A000E4F9834608E028884044288004E04FF093
:1030B000030B01E04FF0030B5846BDE8F09F2DE9EC
:1030C000F04104460E464FF000083088052810D124
:1030D00060780702A078074301231A463946E01CAE
:1030E000FDF714FA054635B1284600F0BEF98046D2
:1030F00001E04FF003084046BDE8F0812DE9F047BC
:1031000004460E464FF0000A3088062826DB607819
:103110004FEA0028A07840EA0808E0780502207904
:10312000054394F80590012D15DB782D13DC680616
:10313000000E48450FD101232A464146A01DFDF748
:10314000E5F9074627B1384600F08FF9824607E0D7
:103150000520308004E04FF0030A01E04FF0030A3D
:103160005046BDE8F0872DE9F04705460C464FF084
:10317000000A2088052833D168784FEA0029A8780A
:1031800040EA0909E87806022E79012E25DB7D2E1A
:1031900023DC2F4600202080032007F8010B208825
:1031A000401C20807006000E07F8010B2088401C90
:1031B00020800023324649463846FDF7A7F980466D
:1031C000B8F1000F04D0404600F04FF9824609E004
:1031D000208800EB4600208004E04FF0030A01E065
:1031E0004FF0030A5046BDE8F0872DE9FC5F044626
:1031F0000D460020009028880A285DDB60784FEAA1
:10320000002AA07840EA0A0A0AF101001FFA80FAAF
:10321000E07806022079064360794FEA002BA07916
:1032200040EA0B0B0BF101001FFA80FBE07907026B
:10323000207A0743607A0190012E3BDB7D2E39DC3A
:10324000012F37DB792F35DC79000198814231D1AC
:1032500001233A46594604F10A00FDF757F9814621
:10326000B9F1000F1ED1A04600202880172008F8D1
:10327000010B2888401C28807006000E08F8010BFE
:103280002888401C28800023324651464046FDF7DE
:103290003DF98146B9F1000F04D12888022101FBD4
:1032A00006002880B9F1000F06D0484600F0DDF88E
:1032B000009001E0032000900098BDE8FC9F2DE9FC
:1032C000F04705460C464FF0000A2088052833D108
:1032D00068784FEA0029A87840EA0909E8780602E8
:1032E00028790643012E24DB7D2E22DA2F4600208A
:1032F0002080042007F8010B2088401C20807006E5
:10330000000E07F8010B2088401C208032464946F9
:103310003846FDF775F88046B8F1000F04D04046F6
:1033200000F0A3F8824609E0208800EB46002080E8
:1033300004E04FF0030A01E04FF0030A5046BDE8F5
:10334000F08700002DE9F04105460E4617461C4661
:103350004FF00008A01C202826DA00201C49088015
:10336000084601880088401C194A108019484554B5
:103370000EB1FF2200E00022154801880088401CA1
:10338000134B188013484254002C0FDD01461A4697
:10339000128888182246394600F094FD0C480088AF
:1033A00020440B49088001E04FF004084046BDE886
:1033B000F08170B505460C46054802880549681C31
:1033C00000F080FD02480088401C2080002070BD75
:1033D00040000020680100202DE9FF5F05460E46F1
:1033E0009046DDF80CB0B8F1080F00DC04E038229C
:1033F00026A12FA000F026FDF408A6EBC4001FFABA
:1034000080FA0BFA0AF01FFA80FB012000FA08F09C
:10341000401E1FFA80F9A6EBC40009FA00F01FFA5B
:1034200080F92F5D601C285C47EA002727EA090025
:1034300040EA0B072F553912601C2954BDE8FF9F45
:10344000F0B503460C461546E208A4EBC20087B26D
:103450000120A840401E86B2995C501C185C41EACD
:10346000002139413140C8B2F0BD014621B10129E6
:1034700004D0072906D103E0002005E0022003E084
:10348000062001E0042000BF00BF70472E2E5C46DE
:10349000726565204D6F646275735C66756E6374EA
:1034A000696F6E735C6D627574696C732E63000076
:1034B00075634E42697473203C3D20380000000063
:1034C00070B502460C46FF25FF2309E012F8010BF8
:1034D00080EA03010648405C80EA05030548455C34
:1034E000201EA4F10106B4B2F0D143EA052070BD5C
:1034F000D0450008D04600082DE9F04781460E4629
:1035000014461F464FF000083B460822214630462D
:1035100000F066FB012802D04FF003080FE0B4F57D
:10352000964F01D9232503E06000A349B1FBF0F5D4
:10353000A8B200F005FC012801D04FF00308404676
:10354000BDE8F08710B500209C49087000210120DB
:1035500000F012FB00F037FC10BD10B5002108464A
:1035600000F00AFB00F042FC10BD2DE9F0410446DA
:103570000D4616464FF00008002791480088FF28A6
:1035800000DC04E0A7228FA195A000F05BFC8C4832
:103590000088042812DB8A4801889B48FFF790FFC7
:1035A00060B999480078207085480088C01E308036
:1035B0009548401C28604FF0010800E00527384678
:1035C000BDE8F0812DE9F04105460E4617464FF063
:1035D00000087A480078012838D1701E8B490860AD
:1035E00001208B49088089480068057008460088DA
:1035F000384408800846018884480068FFF760FF67
:10360000044683490888411C814B19807E490C542B
:10361000221219460888411C19807B490A5401204E
:103620007C49087079490968087800F03CFB7748C4
:103630000068401C7549086075480088401E744940
:1036400008800121002000F097FA01E04FF0050802
:103650004046BDE8F08138B500246E48007800B9D6
:1036600004E0F92257A16CA000F0ECFB684600F0E2
:1036700029FB5248007830B101280AD0022819D01D
:1036800003282BD102E000F09EFB27E000F09BFB1B
:1036900024E000204A4908809DF800200888411C49
:1036A000474B198058490A5402204449087000F0D9
:1036B0008AFB13E042480088FF2809DC9DF80020BF
:1036C0003F490888411C3E4B19804F490A5402E08B
:1036D00003203A49087000F076FB00BF00BF204687
:1036E00038BD10B5002435480078012800D105E028
:1036F00040F2391233A14FA000F0A4FB45480078F6
:1037000010B1012824D104E00021012000F034FA96
:103710001EE03F48008878B13C490968087800F00D
:10372000C2FA3A480068401C3849086038480088A6
:10373000401E374908800AE0032000F004FA0446DE
:103740000021012000F018FA00203249087000BF63
:1037500000BF204610BD10B500241848007820B1E5
:10376000022807D003280BD109E0002000F0EBF974
:10377000044618E0012000F0E6F9044613E012E0E8
:103780000E48007838B10D480078022803D00B4865
:103790000078032800D105E040F27B1209A12C48F3
:1037A00000F050FB00BF00BF00F020FB01200349E8
:1037B0000870204610BD0000A07F170045000020C3
:1037C0004E0000202E2E5C46726565204D6F6462AF
:1037D00075735C7274755C6D627274752E63000033
:1037E0007573526376427566666572506F73203CDE
:1037F000204D425F5345525F5044555F53495A45EF
:103800005F4D415800000000880100204800002062
:103810004C0000204400002065536E6453746174B2
:1038200065203D3D2053544154455F54585F494401
:103830004C450000655263765374617465203D3DCC
:103840002053544154455F52585F49444C45000051
:10385000D04700082DE9F04705460C4616461F469E
:10386000DDF820904FF000081CB1012C01DBF72C93
:1038700002DD4FF0020835E09848047005BB984817
:10388000984908609848994908609948994908609A
:1038900099489A49086000209949086099489A49CE
:1038A00008609A489A4908609A489B4908604B46C4
:1038B0003A46314689480078FFF71EFE804602E00E
:1038C0004FF0020800BF00BFB8F1000F0AD100F0AE
:1038D00035F910B94FF0030804E090480570012055
:1038E0008F4908704046BDE8F08730B502460B4668
:1038F000002A36DD7F2A34DCF3B1002112E0894C46
:1039000004EBC10464682CB1864C04EBC104646808
:103910009C4206D1834C04F8312004EBC10463605F
:1039200002E0491C1029EADB00BF102901D0002465
:1039300000E00424204615E000210DE0794C14F845
:103940003140944207D10024764D05F8314005EB13
:10395000C1056C6002E0491C1029EFDB00BF0020AC
:1039600000E0022030BD10B500246D480078012829
:1039700006D16348006820B161480068804700E0D4
:103980000624204610BD10B50024654800780128A3
:1039900006D154480068804700206149087000E063
:1039A0000624204610BD10B55D48007838B94F4850
:1039B0000068804701205A490870002406E05848F2
:1039C0000078012801D1002400E00624204610BD23
:1039D00038B500255248007808B1062038BD684641
:1039E00000F0B9F8012877D19DF8000030B1012826
:1039F00005D0022818D003286DD16BE06BE04A4A4D
:103A00004A494B483D4B1B68984705465DB94848B5
:103A1000007832490978884202D04548007810B9C8
:103A2000022000F090F856E04048006800784149D4
:103A30000870012040490870002417E0394810F848
:103A4000340000B914E0374810F8340039490978D7
:103A500088420AD1334800EBC400334942683348F6
:103A6000006890473449087002E0641C102CE5DBC4
:103A700000BF2F48007858B32F480078C8B1002005
:103A8000294908802B48007840F0800126480288A8
:103A90000088401C244B1880244800688154264824
:103AA0000278184601880088401C18801F4800686A
:103AB00042541A480078012800D100BF1A480288F1
:103AC0001A480168054800780A4B1B689847054664
:103AD00001E001E000BF00BF00207FE750000020B0
:103AE00045350008580000205B3500085C000020C8
:103AF000C5350008540000206B3500086000002028
:103B0000640000205736000868000020E3360008F3
:103B10006C00002057370008700000205100002082
:103B2000520000207C00002002010020FC00002048
:103B300000010020010100200401002000200C49A8
:103B400008700120704701460120094A1070094899
:103B500001700120704701460020054A127832B1F9
:103B6000044A12780A700022014B1A700120704733
:103B7000060100200501002070B505460C465DB128
:103B8000012240F225516A48FEF7D3F84FF4006154
:103B90006848FDF782FD0AE0002240F225516448A2
:103BA000FEF7C7F84FF400616248FDF774FD5CB1A1
:103BB000012240F226615E48FEF7BBF84FF4006137
:103BC0005C48FDF768FD0AE0002240F22661584893
:103BD000FEF7AFF84FF400615648FDF75EFD70BD8B
:103BE000F0B587B005460C4616461F46012144F243
:103BF0000400FDF75FFF4FF40070ADF818000320DC
:103C00008DF81A0018208DF81B0006A94948FDF709
:103C100095FC4FF48060ADF8180003208DF81A0071
:103C200004208DF81B0006A94248FDF787FC02948A
:103C30000020ADF80C00ADF80E00ADF81000ADF8A6
:103C400014000C20ADF8120002A93948FDF7D9FF85
:103C500001213748FEF761F84FF4C060FEF792F992
:103C600025208DF8040000208DF805008DF8060051
:103C700001208DF8070001A8FEF789F90121202015
:103C8000FDF718FF4FF40060ADF8180003208DF821
:103C90001A0010208DF81B0006A92648FDF74EFCDF
:103CA000012007B0F0BD10B5044621462048FEF7BC
:103CB000A1F800BF80211E48FEF70AF90028F9D0BC
:103CC000012010BD10B5044640F225511848FEF7FA
:103CD0000CF91748FEF792F82070012010BD10B5BE
:103CE00015480068804710BD10B51448006880472B
:103CF00010BD10B540F225510D48FEF7FFF8012820
:103D000006D1FFF7F1FF40F225510948FEF720F9EF
:103D100040F226610648FEF7F1F8012806D1FFF7C8
:103D2000DEFF40F226610248FEF712F910BD0000E6
:103D300000380140000801406C00002068000020AD
:103D40007FB50446002501210420FDF7C0FE3A4856
:103D5000006844F62061B0FBF1F0401E85B2ADF87A
:103D60000840ADF804500020ADF80A00ADF8060098
:103D700001A93248FEF748FA01213048FEF7A0FEBB
:103D80004FF4C060FEF7FEF81E208DF80000002002
:103D90008DF8010003208DF8020001208DF803004A
:103DA0006846FEF7F4F801212448FFF763F8002283
:103DB00001212248FEF79FFD00212048FEF780FDEB
:103DC000012004B070BD10B501211C48FFF752F866
:103DD000012211461948FEF78EFD00211748FFF712
:103DE00003F801211548FEF76BFD10BD10B5012148
:103DF0001248FFF73FF8002201211048FEF77BFD33
:103E000000210E48FEF7F0FF00210C48FEF758FD98
:103E100010BD10B50A480068804710BD10B50121DB
:103E20000648FFF716F828B101210448FFF722F8E9
:103E3000FFF7EFFF10BD00000C000020000800405D
:103E4000700000200EB5054614460E4613A000F083
:103E50008CF8284600F089F816A000F086F8304665
:103E600000F083F815A000F080F800218DF80B1009
:103E70000A210DF10A008DF80A1008E094FBF1F216
:103E800001FB124294FBF1F4303200F8012D002CBA
:103E9000F4DC00F06AF800F05DF800002A2A2A201D
:103EA000617373657274696F6E206661696C6564B5
:103EB0003A2000002C2066696C6520002C206C697B
:103EC0006E652000032A40F2308010F0030C00F0F1
:103ED000158011F8013BBCF1020F624498BF11F844
:103EE00001CB00F8013B38BF11F8013BA2F10402FD
:103EF00098BF00F801CB38BF00F8013B11F0030375
:103F000000F03D80083AC0F0088051F8043B083AC0
:103F100051F804CBA0E80810F5E7121D5CBF51F87A
:103F2000043B40F8043BAFF30080D20724BF11F8F4
:103F3000013B11F801CB48BF11F8012B24BF00F859
:103F4000013B00F801CB48BF00F8012B70477047D8
:103F50007047704710B5002000F050F8FCF724F9C6
:103F6000BDE81040012000F043B810B5044602E05F
:103F7000641C00F036F820780028F9D110BD10B587
:103F8000203AC0F00B80B1E81850203AA0E8185051
:103F9000B1E81850A0E81850BFF4F5AF5FEA027C12
:103FA00024BFB1E81850A0E8185044BF18C918C081
:103FB000BDE810405FEA827C24BF51F8043B40F822
:103FC000043B08BF7047D20728BF31F8023B48BF07
:103FD00011F8012B28BF20F8023B48BF00F8012B45
:103FE000704708B569468DF800000320ABBE08BDD8
:103FF00001491820ABBEFEE72600020010B500F014
:1040000039F8BDE8104000F02FB87047754600F051
:1040100049F8AE4605006946534620F0070085463C
:1040200018B020B5FDF718FABDE820404FF00006A3
:104030004FF000074FF000084FF0000B21F0070190
:10404000AC46ACE8C009ACE8C009ACE8C009ACE8D3
:10405000C0098D46704710B50446AFF30080204676
:10406000BDE81040FCF7ABB8002801D0FFF7C0BF97
:104070007047000010B5002102A000F017F80120E1
:1040800010BD0000534947414252543A2041626EEC
:104090006F726D616C207465726D696E6174696FA9
:1040A0006E000000004870478802002070B5054689
:1040B0000C460A2000E06D1CFFF793FF35B128780D
:1040C0000028F8D102E0641CFFF78BFF14B12078C0
:1040D0000028F8D1BDE870400A20FFF782BF000039
:1040E0004FEA1153A3F58063D3F11E03A8BFD3F1A8
:1040F000200C08DB4FF0004242EAC12252EA505243
:1041000032FA03F0704709420BD4102BC4BF0020D1
:10411000704703F5787CBCF1FF3F05D04FF0FF30CE
:1041200070474FF00000704770B500F0B1F800BF65
:104130004992248000207047F0E70000DFF848C172
:1041400070B51CEA111E1EBF1CEA13159EEA0C0F67
:1041500095EA0C0F00F06F8081EA030423EA4C1308
:104160004EEAD47E21EA4C1141F4801143F48013CD
:10417000AE44A1FB024CA0FB0365AEF17F7E361975
:1041800055EB0C05A1FB034C4CF10003A0FB021CFA
:1041900016EB0C06654153F10003094218BF46F0C7
:1041A000010613F4007F0BD14FEA03314FEA0530CB
:1041B000340341EA155140EA16506FF003020AE059
:1041C0004FEAC3214FEAC520F40241EA555140EAC3
:1041D00056506FF0020202EB2E4201EB025585EAC7
:1041E000CE710AD05FEA440C18BF24F0004450F1AD
:1041F000000041F1000120EAD47040F2FE7C6245EB
:1042000000D270BDA84214BF4FF080444FF040442C
:10421000002E08BF0024BEF1806FA8BFA1F1C041ED
:10422000BDE8704080F282804FF0000001F1C04193
:1042300001F0004170479EEA0C0F0CEA131518BFFD
:1042400095EA0C0F06D04FF0000081EA030E0EF045
:10425000004170BD00F01CF88900013E00F007B875
:1042600000F009B84FEA430C5FEA5C5C08D081EAD1
:10427000030100F05BB84FEA410C5FEA5C5CF6D1E9
:104280004FF00000014970470000FF070000F87F71
:104290000EF1020E2EF0030E5EF8046B364205D4CA
:1042A000012A43EB030515F5001F12D8012841EB45
:1042B000010C1CF5001F0CD80ED14FEAD17C15F56E
:1042C000001F0CEB4C0C0CF1020C08BF4CEBD37C28
:1042D00004E04FF0080C01E04FEAD37C0CEB4C05F6
:1042E00026FA05F606F00706B6F1040C06D20EEB28
:1042F000860CBDE870404CF0010C6047DFE80CF024
:10430000090B02024FF000414FF00000A1F500211F
:1043100070BD19461046012851EB010418BFD4F5B1
:10432000001484BF002001F0004170BD0808A0F512
:1043300000114FEA3101704743004FEAD30C4FEAB6
:104340003C0C43401FBF40070CF1605113F0FE4F7F
:1043500070471CF0006F03D100200CF00041704743
:104360000CF0004343EA507010B540EACC0000F076
:10437000E4F800BF000000924FEA0001FFF7D6BF4B
:104380004FF000414FF00000A1F500217047000000
:104390004FF47F0C1CEAD0121EBF1CEAD11392EA24
:1043A0000C0F93EA0C0F00F0858090EA010F48BFD4
:1043B00042F4807240F4000C41F400002CF07F4184
:1043C00020F07F4000B58142A2EB03020FF2081CEF
:1043D000ACEB504EC0F100009EF800E04FEA4E0EEC
:1043E00000FB0EFC38BF49004FEA2C1C02F5FA0214
:1043F0000CFB0EF34FEACE1E4FEA112C4FEAC121FF
:104400000EEB635E42EB22420EFB0CFC4FEA1C53A8
:1044100000FB03114FEA112C4FEA01310EFB0CFC9B
:104420004FEADC4C00FB0C11C14228BF09184CEBD1
:1044300003335DF804EB10EB410143EBC250B2F5DE
:104440007C0F38BF704729D512F0F00F1CBF00F168
:10445000C04000F0004070470081828384858687D9
:1044600088898B8C8D8E8F919293959697999A9C33
:104470009D9FA0A2A3A5A7A8AAACAEB0B2B3B5B7A2
:10448000B9BCBEC0C2C5C7C9CCCED1D4D7D9DCDF78
:10449000E2E6E9ECF0F3F7FAFE0000004FEA400C28
:1044A0000CF1807CBCF17E4F28BF7047B0F1C0405A
:1044B00000F089B890EA010F0CEAD11348BF42F42A
:1044C0008072624538BF634507D213F47F0F16D060
:1044D00080EA010000F00040704710B500F02DF8B0
:1044E000097EFC3E00F005B880EA010000F00040C3
:1044F000704780EA010000F0004000F064B812F458
:104500007F0F04BF0248704780EA010000F05BB8EB
:104510000000C07FB0FA80F310FA03F2C3F19D03EC
:104520000AD0D90501EB1220530638BF704700F1BD
:10453000010008BF20F0010070470EF1020E2EF0BE
:10454000030E5EF8044B244204D44FEA4102B2F158
:104550007F4F11D84FEA4003B3F17F4F0CD80ED1F3
:104560004FEAD07CB2F17F4F0CEB4C0C0CF1020CFB
:1045700008BF4CEBD17C04E04FF0080C01E04FEA9F
:10458000D17C0CEB4C0324FA03F404F00704B4F1DF
:10459000040C06D20EEB840CBDE810404CF0010C6C
:1045A0006047DFE80CF0070802024FF00040A0F57A
:1045B000800010BD0846420018BFD2F1807288BF4B
:1045C00000F0004010BDFF2141EAD050C005704707
:1045D00000C1814001C0804101C0804100C18140D3
:1045E00001C0804100C1814000C1814001C08041C3
:1045F00001C0804100C1814000C1814001C08041B3
:1046000000C1814001C0804101C0804100C18140A2
:1046100001C0804100C1814000C1814001C0804192
:1046200000C1814001C0804101C0804100C1814082
:1046300000C1814001C0804101C0804100C1814072
:1046400001C0804100C1814000C1814001C0804162
:1046500001C0804100C1814000C1814001C0804152
:1046600000C1814001C0804101C0804100C1814042
:1046700000C1814001C0804101C0804100C1814032
:1046800001C0804100C1814000C1814001C0804122
:1046900000C1814001C0804101C0804100C1814012
:1046A00001C0804100C1814000C1814001C0804102
:1046B00001C0804100C1814000C1814001C08041F2
:1046C00000C1814001C0804101C0804100C18140E2
:1046D00000C0C101C30302C2C60607C705C5C404A2
:1046E000CC0C0DCD0FCFCE0E0ACACB0BC90908C812
:1046F000D81819D91BDBDA1A1EDEDF1FDD1D1CDC02
:1047000014D4D515D71716D6D21213D311D1D01071
:10471000F03031F133F3F23236F6F737F53534F461
:104720003CFCFD3DFF3F3EFEFA3A3BFB39F9F838D1
:1047300028E8E929EB2B2AEAEE2E2FEF2DEDEC2CC1
:10474000E42425E527E7E62622E2E323E12120E031
:10475000A06061A163A3A26266A6A767A56564A421
:104760006CACAD6DAF6F6EAEAA6A6BAB69A9A86891
:1047700078B8B979BB7B7ABABE7E7FBF7DBDBC7C81
:10478000B47475B577B7B67672B2B373B17170B0F1
:1047900050909151935352929656579755959454E1
:1047A0009C5C5D9D5F9F9E5E5A9A9B5B9959589851
:1047B000884849894B8B8A4A4E8E8F4F8D4D4C8C41
:1047C00044848545874746868242438341818040B1
:1047D0002820655263765374617465203D3D2053F3
:1047E000544154455F52585F494E49542029207C1A
:1047F0007C202820655263765374617465203D3DAA
:104800002053544154455F52585F5243562029204B
:104810007C7C202820655263765374617465203D4A
:104820003D2053544154455F52585F4552524F52B8
:104830002029000054480008000000200801000062
:104840006C0100085C49000808010020E007000036
:1048500088010008000000000000000000000000C7
:1048600000A24A040000000000000000010203044E
:10487000060708090000000000000000000000001A
:1048800000000000010203040102030406070809F6
:104890000204060800000000000000000000000004
:1048A0000000000000000200000000000000000006
:1048B00000000000000000000000000000000000F8
:1048C00000000000000000000000000000000000E8
:1048D00011000000B333000804000000BF320008DC
:1048E000030000006731000810000000FD300008E0
:1048F00006000000BF30000817000000EB31000880
:10490000010000007B2E000805000000212F000898
:104910000F0000008D2F0008020000001B3000086F
:104920000000000000000000000000000000000087
:104930000000000000000000000000000000000077
:104940000000000000000000000000000000000067
:0C4950000000000000000000000000005B
:0400000508000131BD
:00000001FF
